:100000000C9416010C943E010C943E010C94851145
:100010000C94AF110C94D9110C943E010C943E0138
:100020000C943E010C943E010C943E010C943E0154
:100030000C943E010C943E010C943E010C943E0144
:100040000C9432190C943E010C94D3140C94211589
:100050000C943E010C943E010C943E010C943E0124
:100060000C943E010C943E010001080006040001BE
:10007000450000820000400020504F535420244689
:1000800020485454502F312E300D0A486F73743A63
:100090002024460D0A244624534163636570743A54
:1000A000202A2F2A0D0A436F6E74656E742D4C65DD
:1000B0006E6774683A2024440D0A436F6E74656E4F
:1000C000742D547970653A206170706C6963617445
:1000D000696F6E2F782D7777772D666F726D2D751E
:1000E000726C656E636F6465640D0A0D0A245300BB
:1000F000474554202446245320485454502F312E31
:10010000300D0A486F73743A2024460D0A24460DB8
:100110000A0D0A004163636570743A20746578744F
:100120002F68746D6C00E30004FA00010000000108
:100130006170692E636F736D2E636F6D00355F574D
:100140006771506A6A776D7169755A33745F532DA0
:1001500053596A4558306B6D53414B78425A473575
:100160005264457069574534355554306700313114
:10017000383239350050555420687474703A2F2F36
:1001800024462F76322F66656564732F24462E63CE
:10019000737620485454502F312E300D0A486F7317
:1001A000743A2024460D0A582D4170694B65793AFE
:1001B0002024460D0A436F6E74656E742D4C656E77
:1001C0006774683A2024440D0A0D0A244800000090
:1001D0000000240027002A0000000000250028005D
:1001E0002B00000000002300260029000404040462
:1001F00004040404020202020202030303030303D1
:1002000001020408102040800102040810200102AD
:10021000040810200000000700020100000304068B
:1002200000000000000000009F138D1611241FBE67
:10023000CFEFD8E0DEBFCDBF11E0A0E0B1E0E0E15C
:10024000FBE302C005900D92AA3DB107D9F716E075
:10025000AAEDB1E001C01D92A33CB107E1F712E0A5
:10026000CCE2D2E004C02297FE010E94821DC83277
:10027000D107C9F70E9423190C94861D0C94000025
:10028000FB01DC0102C005900D9241505040D8F7AF
:100290000895FC0105900020E9F7809590958E0F58
:1002A0009F1F0895FB01DC0104C08D91019080190E
:1002B00021F441505040C8F7881B990B0895CF9303
:1002C000DF93C0E0D0E05C2FFE01E652FE4FE081FC
:1002D000EE2349F120E030E06E2F70E0CB01022EDA
:1002E00002C0959587950A94E2F780FF17C0C65221
:1002F000DE4F81E090E0A0E0B0E0022E04C0880F65
:10030000991FAA1FBB1F0A94D2F780958E2388835A
:10031000852F880F880F880F820F0AC02F5F3F4FED
:1003200028303105D9F62196C032D10561F680E03A
:10033000DF91CF910895CF93DF93EC019B018A3039
:10034000910548F06AE070E00E944A1DCB01B901B6
:100350000E949B019C01CE016AE070E00E944A1D50
:10036000805DF9018193D90111961C92CF01DF9133
:10037000CF910895AF92BF92CF92DF92FF920F93E9
:100380001F93CF93DF938C01EB01F42E10929A020E
:1003900038E341E050E060E070E018C0832F90E067
:1003A000FC01B3E0F595E795BA95E1F7E652FE4F0B
:1003B000877090705A016B0104C0AA0CBB1CCC1C46
:1003C000DD1C8A95D2F720812A292083315031F70C
:1003D0008CE792E0BE010E940711C8016CE772E051
:1003E0004F2D0E94D90ADF91CF911F910F91FF905D
:1003F000DF90CF90BF90AF900895EF92FF920F9350
:100400001F93CF93DF93EC0131E0E32EF12C012D0C
:10041000112D1EC090E0FC0123E0F595E7952A958B
:10042000E1F7E652FE4F87709070A801970104C073
:10043000220F331F441F551F8A95D2F7DA01C901D5
:100440002081282B20838D816FE30E949D098D835D
:100450008D818823F9F6DF91CF911F910F91FF9045
:10046000EF900895982F80913A02981729F4E62F7B
:10047000F0E0E650FE4F08C080917B02981731F4FF
:10048000E62FF0E0E55CFD4F80810895892F0E9402
:100490009D0908950F931F93FC0104818FE3089F2A
:1004A0008001112486816EE30E943202080F111D23
:1004B00003501040C8011F910F9108951F93CF93CF
:1004C000DF93982F162FC82FD0E0FE0156E0EE0FD5
:1004D000FF1F5A95E1F7EC0FFD1FE650FE4FE05C61
:1004E000FF4F8081E054F040681771F1992359F46F
:1004F000BF010E94630A80917B02181791F48FEF6D
:1005000080937B020EC080913A02681751F4ABE3EE
:10051000B2E0EAEFF1E081E401900D928150E1F761
:1005200013C0FE0146E0EE0FFF1F4A95E1F7EC0F06
:10053000FD1FE650FE4FE05CFF4F1083E054F0409B
:10054000812FBF010E94C009DF91CF911F910895B3
:1005500080E060E00E945E028091FA019091FB01D0
:100560000895CF93DF93EC0181E06F810E945E02DA
:100570009F818E81981739F4988580917902981718
:1005800010F080E013C08885E82FF0E0E55CFD4FB7
:10059000E0818F5F88878F3340F09F818E8198172D
:1005A00021F080917A028F8318868E2FDF91CF9170
:1005B00008951F93CF93DF93EC01162F80E06E8197
:1005C0000E945E0280913802E82FF0E0E650FE4F74
:1005D00010838F5F8F3318F48093380210C00E940D
:1005E0005F01682F809339028E8380E00E945E0253
:1005F00010923902109238028C818F5F8C83DF91C8
:10060000CF911F9108950E94D90281E090E0089552
:10061000CF93DF93EC0180E06D810E945E02AAEF30
:10062000B1E0FE01349683E001900D928150E1F734
:1006300090917B028D81981721F481E060E00E9407
:100640005E02DF91CF910895CF93DF93EC016F832A
:1006500083E0888781E00E945E02DE011496EBE36E
:10066000F2E083E001900D928150E1F78F81DF91FC
:10067000CF910895AF92BF92CF92DF92EF92FF9207
:100680000F931F93DF93CF93CDB7DEB729970FB6A4
:10069000F894DEBF0FBECDBF80E060E00E945E0236
:1006A0000091FC011091FD017CEFE72E71E0F72E27
:1006B0006AEBA62E61E0B62E6E010894C11CD11C17
:1006C00002C00F5F1F4FF80184918823C9F00F5FAC
:1006D0001F4F8432C1F782E090E0E80EF91EF70167
:1006E0006081F8018491883461F71C821B82BA8290
:1006F000A982C6010E942403C6010E94FD01E1CF28
:1007000029960FB6F894DEBF0FBECDBFCF91DF9113
:100710001F910F91FF90EF90DF90CF90BF90AF901F
:1007200008954F925F926F927F928F929F92AF92B5
:10073000BF92CF92DF92EF92FF920F931F93DF93BE
:10074000CF93CDB7DEB760970FB6F894DEBF0FBE7C
:10075000CDBF8E010D5D1F4FF801E190F1908F012B
:1007600080E060E00E945E02C7010E944901909310
:10077000FB018093FA01F092FD01E092FC01680117
:10078000AEEF8A2EA1E09A2EFAEB4F2EF1E05F2E0B
:10079000E8E06E2E712C6C0E7D1E5E010894A11C8B
:1007A000B11CF7018491882309F465C00894E11C09
:1007B000F11C8432B1F7F60100811181F7018491B7
:1007C000863429F1873428F4843469F0853429F497
:1007D00007C0883469F1833591F0A0E0B0E034C0FF
:1007E000A0E0B0E019C0C801B5010E949B01D5018D
:1007F0000D900020E9F71197AA19BB0925C0D8016F
:100800000D900020E9F71197A01BB10B1DC0C80186
:100810000E94490118C01196F999FECFCD01800FB1
:10082000911F92BD81BDF89A80B58823A1F70CC0B5
:100830001B861A8659864886C301602F0E942403AE
:10084000C3010E944A02DC010894E11CF11CF4017E
:10085000019311934F018091FA019091FB0102974E
:100860008A0F9B1F9093FB018093FA0182E090E036
:10087000C80ED91E96CF60960FB6F894DEBF0FBE95
:10088000CDBFCF91DF911F910F91FF90EF90DF903F
:10089000CF90BF90AF909F908F907F906F905F9020
:1008A0004F9008952F923F924F925F926F927F9256
:1008B0008F929F92AF92BF92CF92DF92FF920F934F
:1008C0001F93DF93CF93CDB7DEB760970FB6F89441
:1008D000DEBF0FBECDBF1C013B01142F052F80E0F2
:1008E00060E00E945E02C090FC01D090FD011B867A
:1008F0001A868AEB91E0998788871F861D86212FAB
:10090000302FC9012C010CEF802E01E0902E10E455
:10091000F12E00E010E0AA24BB24620C731C83C0FB
:1009200086E4F81609F45EC08F1564F094E4F916B5
:1009300009F454C09F150CF45AC0E0E4FE1609F007
:1009400070C009C0F8E4FF1609F45BC083E5F8162F
:1009500009F067C043C0F6018491282F882309F469
:1009600066C00894C11CD11C843209F050C082E0DA
:1009700090E0880E991EF40160812181F6010894AF
:10098000C11CD11CF490F6E4FF1544F085E4F81680
:10099000C4F494E4F91609F046C008C0E8E4FE1671
:1009A000A9F0F3E5FF1609F03EC00BC0862F922F89
:1009B000BE016F5F7F4F0E949B018E010F5F1F4F33
:1009C00032C0862F922F9C0189012DC0CE0108963E
:1009D0000E9424038E01085F1F4F25C0F80121915A
:1009E0008F0113C0F8010F5F1F4F24910EC0F999BA
:1009F000FECFC801019612BD01BDF89A20B58C0149
:100A000004C0C8010E94B102282F222351F0A21471
:100A1000B30418F0F20121932F010894A11CB11C1A
:100A200002C0B0E4FB2EA614B70408F479CF609698
:100A30000FB6F894DEBF0FBECDBFCF91DF911F91EF
:100A40000F91FF90DF90CF90BF90AF909F908F90CD
:100A50007F906F905F904F903F902F900895EF920E
:100A6000FF921F937C010E945F01182F80E0612F8D
:100A70000E945E02EAEFF1E01092FA011093FC018D
:100A80001093FB0183E086AF17AEC701612F0E9470
:100A900024031F91FF90EF900895DF93CF9300D030
:100AA00000D000D0CDB7DEB7DE011196EEEBF1E05D
:100AB00086E001900D928150E1F786E191E0E7E454
:100AC000F3E0DF019C011D9221503040E1F780915D
:100AD0009C02833019F46EE872E003C0BE016F5FC0
:100AE0007F4F84E490E043E450E00E945B0C8091EF
:100AF0009C02833039F087E493E0BE016F5F7F4F43
:100B00000E94071181E0809371038093720386E055
:100B1000809373038091A9029091AA02A091AB02E5
:100B2000B091AC028093750390937603A093770302
:100B3000B093780380919C02833039F481E793E08D
:100B40000C9662E872E00E940F118DE893E06CE76A
:100B500072E00E940711ADE5B4E0E5EAF1E002C001
:100B600081918D9331E0EB3AF307D1F790919C029C
:100B7000992311F083E001C081E0809363048DE349
:100B80008093640487E08093650481E08093660429
:100B9000A7E6B4E0ECE7F2E002C081918D9382E039
:100BA000E238F807D1F78CE080936D048AE08093F7
:100BB0006E04E4E9F1E0AFE6B4E002C081918D9308
:100BC00021E0EE39F207D1F729E734E03093AE02A5
:100BD0002093AD02913069F582E38093790484E03B
:100BE00080937A04D9011296E2E8F2E002C0819182
:100BF0008D9332E0E638F307D1F786E380937F04E4
:100C000084E08093800481E894E09093AE02809326
:100C1000AD02DC01EEE8F2E002C081918D9382E04A
:100C2000E239F807D1F785E894E09093AE0280931B
:100C3000AD022091AD023091AE02D901EFE9F1E0B1
:100C400002C081918D9381E0E53AF807D1F7C9019F
:100C500006969093AE028093AD02815793400E9416
:100C6000D30D26960FB6F894DEBF0FBECDBFCF9141
:100C7000DF910895EF92FF920F931F93CF93DF932D
:100C8000EC0180919C02823009F4E0C0833030F4A2
:100C9000882351F1813009F03DC14AC0833021F0F1
:100CA000843009F037C1D2C00E947A192091A10284
:100CB0003091A2024091A3025091A402E0909D02C3
:100CC000F0909E0200919F021091A0022E0D3F1DF8
:100CD000401F511F621773078407950708F41AC154
:100CE0000E944D0584E017C00E947A196093A90202
:100CF0007093AA028093AB029093AC02109282028E
:100D00001092830210928402109285020E944D0577
:100D10000E942D0981E080939C020E947A196093C1
:100D2000A5027093A6028093A7029093A802F2C036
:100D3000C634D10508F4B2C080916A03833409F047
:100D4000ADC080917103823009F0A8C02091750375
:100D50003091760340917703509178038091A902F6
:100D60009091AA02A091AB02B091AC02281739076A
:100D70004A075B0709F092C080916104853309F04E
:100D80008DC080916304823009F088C0A6C0DF0165
:100D90001196E180ED01219680818630A9F087309F
:100DA00030F4813059F0833009F045C00AC08633F1
:100DB000E9F18A3361F08333F1F509C086E892E006
:100DC00037C08AE892E034C082E992E031C01196DF
:100DD0006C9170E080E090E0982F872F762F662747
:100DE0002981620F711D811D911D982F872F762FEC
:100DF00066272A81620F711D811D911D982F872FF3
:100E0000762F66272B81620F711D811D911D28EEA3
:100E100033E040E050E00E942B1D6093A1027093EC
:100E2000A2028093A3029093A40205C08EE892E0F0
:100E3000BE010E940F11FE01EE0DF11DE017F1073A
:100E400008F4A5CF0E944D0582E065CFC634D105D8
:100E500028F180916A03833409F58091710382300F
:100E6000E9F4209175033091760340917703509116
:100E700078038091A9029091AA02A091AB02B0914F
:100E8000AC02281739074A075B0741F480916104D7
:100E9000853321F480916304853059F10E947A19D9
:100EA0002091A5023091A6024091A7025091A8027C
:100EB000205F384D4F4F5F4F2617370748075907B8
:100EC00048F028C08AE892E00E94C10C83E0809339
:100ED0009C0220C010929C021DC082E892E061E852
:100EE00073E00E940F11E1E6F4E08E01095B1C4FF4
:100EF0004ECF0E9428090E947A1960939D02709338
:100F00009E0280939F029093A00280918A02882380
:100F1000E9F2D8CFDF91CF911F910F91FF90EF9021
:100F20000895CF93DF9381E080939A02909181029C
:100F3000892F82958F70805D80939C019F70905D5A
:100F400090939D0110929C020E947A19EB0104C0BB
:100F50000E94DA090E943A0680919C02833061F077
:100F60000E947A196C1B7D0B60567A4E28F40E9401
:100F70005E09882389F3ECCF90E080919C02833056
:100F800009F491E0892FDF91CF910895FF920F939B
:100F90001F93CF93DF93182F092FF62E0E947A19F3
:100FA000EB010E945E09882329F00E94000C88232F
:100FB00009F4DBC00E94DA090E94020E0E947A192D
:100FC0006C1B7D0B6053754760F3C8C088E098E0E8
:100FD000A8E0B8E08093920290939302A0939402C9
:100FE000B09395028091AF0290E0906E62E972E05A
:100FF00045E350E00E945B0CA1E7B3E08CE0FD010B
:1010000011928A95E9F7812F902FFC01CF011C9650
:1010100030E0FF2019F0FC01208102C0FC01249186
:1010200001962E3241F0222331F03F5FFD01E30FA4
:10103000F11D2083EECFFD013193DF01A30FB11D20
:10104000222331F7FD01119211961C92DF011196B6
:1010500041E04183FD01319611961C92418386ED5A
:1010600027E433E0821B32968E0F809371039091B8
:10107000AF0290937203409373034093760390E022
:101080000E94D30D0E947A198B0161C00E947A19C7
:10109000601B710B6053754708F060C00E94DA094D
:1010A000EC01009709F453C00E94020E892B09F04D
:1010B0004EC0C634D10508F44AC080916A03853316
:1010C00009F045C080916B03803E09F040C09091CB
:1010D0006C038091AF029817D1F580917203891744
:1010E000B1F58091740390E08F709070892B79F541
:1010F00080917103E82FF0E0EF58FC4F9E01295BCF
:101100003C4F8081807C39F0329609C080818823F1
:1011100011F4319604C03196E217F307B8F3CF010A
:101120000E962817390798F08181813051F4818516
:10113000843039F43A9686E992E0BF010E940F119B
:1011400006C0818590E00A96E80FF91FDACF8091FA
:101150009602882309F49ACF81E001C080E0DF91F4
:10116000CF911F910F91FF900895109296021092C7
:10117000970210929802109299028091AF028F5FAD
:101180008093AF0280919202882309F02BCF1ECF6B
:101190008091B20261E00E94651A78940895FF92EE
:1011A0000F931F93082F162FF42EF8948091B202FC
:1011B00060E00E94651A1F71102B1EBD0DB407FE62
:1011C000FDCFFEBC0DB407FEFDCF0E94C8081F91E5
:1011D0000F91FF9008951F93182F282F30E020764D
:1011E00030708091B30290E02817390799F080EAB7
:1011F0006FE143E00E94CF08412F40764093B30255
:1012000050E085E0559547958A95E1F780E86FE1D4
:101210000E94CF081F9108950F931F93182F062F38
:101220000E94EB0880E4612F402F0E94CF081F919D
:101230000F9108950F931F93182F072F0E940C09E9
:10124000812F8F5F602F0E940C091F910F910895CD
:1012500088E360EB0E940C09089588E361EB0E942B
:101260000C0908950F931F93182F062FF89480915F
:10127000B20260E00E94651A802F8F71812B8EBDB3
:101280000DB407FEFDCF1EBC0DB407FEFDCF07FF5A
:1012900004C01EBC0DB407FEFDCF1EB50E94C808D9
:1012A000812F1F910F9108951F93182F0E94EB0813
:1012B00080E0612F0E9432091F91089584ED61E161
:1012C0000E940C0982ED61E00E940C098AEE0E94E6
:1012D000540980FDFBCF82ED60E00E940C0989ED8E
:1012E0000E94540990E09695879596958795817010
:1012F00008950F931F93CF93DF93EC018B01F89424
:101300008091B20260E00E94651A8AE38EBD0DB43E
:1013100007FEFDCF09C01EBC0DB407FEFDCF8EB584
:10132000F80181938F0121972097A9F70E94C8089F
:10133000DF91CF911F910F910895DF93CF930F927B
:10134000CDB7DEB7198290E036E0880F991F3A9545
:10135000E1F7860F911DBC0160507E4E80509E408B
:1013600050F480E00E941A0981E090E0BE016F5FB6
:101370007F4F0E94790989810F90CF91DF91089565
:10138000CF93DF93EB0190E046E0880F991F4A95D9
:10139000E1F7BC0160507E4E815C9D4040F480E0EE
:1013A0000E941A0980E490E0BE010E947909DF9151
:1013B000CF9108950F931F93DF93CF9300D000D068
:1013C00000D0CDB7DEB789E30E945409882319F411
:1013D00000E010E048C06091B4027091B50280E076
:1013E0000E941A0986E090E0BE016F5F7F4F0E9465
:1013F000790989819A819093B5028093B4022B81F7
:101400003C81E091B002F091B1028D8187FD03C073
:1014100000E010E00EC0245030408F010150104019
:101420002017310708F48901C80167E473E00E94BE
:101430007909F801E95BFC4F10826091B402709168
:10144000B5028CE06130780724F08CE06FEF7BE030
:1014500003C0615070408CE00E941A0980E86EE180
:1014600040E40E94CF08C80126960FB6F894DEBF6C
:101470000FBECDBFCF91DF911F910F9108950F93B4
:101480001F93CF93DF938C01EB01F8948091B2020C
:1014900060E00E94651A8AE78EBD0DB407FEFDCF9D
:1014A00008C088818EBD0DB407FEFDCF2196015086
:1014B000104001151105A9F70E94C808DF91CF91CE
:1014C0001F910F910895CF93DF93EB0190E056E0C9
:1014D000880F991F5A95E1F7BC0160507E4E815CE0
:1014E0009D4040F482E00E941A0980E490E0BE0131
:1014F0000E943F0ADF91CF910895CF93DF93EC01D3
:101500000FC08CE10E94540981FF0AC080E86FE19E
:1015100040E80E94CF0880EA6FE140E80E94CF08CF
:1015200080E06FE10E94320983FDEBCF82E060E052
:101530007CE00E941A09BE016050744F86E00E9450
:101540001A098AE760E040E00E94CF08CE0167E414
:1015500073E00E943F0A80E86FE148E00E94CF08F4
:10156000DF91CF9108958AE061E00E94261A8AE017
:1015700061E00E94651A8BE061E00E94261A8DE00E
:1015800061E00E94261A8CE060E00E94261A8BE03F
:1015900061E00E94651A8BE060E00E94651A8DE0B0
:1015A00060E00E94651A80E58CBD8DB581608DBDBF
:1015B00008951F93CF93DF93EB01142F9093B10203
:1015C0008093B0020CB406FC02C00E94B30A1093D0
:1015D000B202812F61E00E94261A0E94C8088FEF94
:1015E00060E04FEF0E94CF0862E070E080E090E0A2
:1015F0000E94881980E06DE10E9432098823D1F3AE
:101600001092B5021092B40288E060E070E00E948F
:101610001A098CE060E070E00E941A098AE06FEF1E
:101620007BE00E941A0984E060E07CE00E941A09D5
:1016300086E06FEF71E10E941A090E942D0988E28D
:101640006FE370E30E941A0980E369EF77EF0E946D
:101650001A0980EC6DE00E940C0981EC60E00E94A8
:101660000C0980E862EC42E30E94CF0886EC62E15C
:101670007CE00E941A0984EC62E10E940C098AEC69
:101680006CED75E00E941A0984EE68810E940C09D5
:1016900085EE69810E940C0982EE6A810E940C0924
:1016A00083EE6B810E940C0980EE6C810E940C0914
:1016B00081EE6D810E940C0984ED60E10E940C09AD
:1016C00086ED60E071E00E941A098AEE0E945409DA
:1016D00080FDFBCF8FE10E94EB0880E86BE140ECDE
:1016E0000E94CF0880E86FE144E00E94CF0882E7C3
:1016F0000E945409863008F08F5FDF91CF911F91CF
:101700000895DF92EF92FF920F931F93CF93DF9391
:10171000D82E862FBA01213041F4675F7F4F9B019D
:1017200040E050E0695070400EC0223029F020E0C7
:1017300030E040E050E007C0625070409B0140E064
:1017400050E06E5F7F4FE82EFF2487E493E0E80EC1
:10175000F91E8B01E7010FC0F881E0E0898190E07C
:101760008E2B9F2BA0E0B0E0280F391F4A1F5B1F74
:101770002296025010400230110570F7CB018E7F87
:10178000D701A80FB91F6817790779F08C9190E0FD
:10179000A0E0B0E0BA2FA92F982F882702C040E020
:1017A00050E0280F391F4A1F5B1FCA01AA27BB2719
:1017B0000097A105B10599F7C90180959095ED2D88
:1017C000F0E0E95BFC4F90838183DF91CF911F9123
:1017D0000F91FF90EF90DF90089510925F031092A9
:1017E000600380E480935B0310925C0380935D034D
:1017F00088E16EE044E150E020E00E94810B089512
:101800008091B6028695809581700895662341F493
:101810008093AF01495B5C4F5093CA024093C90269
:1018200081E00895309192012091930186E09CE03F
:101830009093BE028093BD0283E690E19093C00234
:101840008093BF022093B9023093BA0281E0809363
:10185000B7028091B8028F5F87708093B80280933F
:10186000CB0208950F931F93BC0107E413E0C80156
:101870000E940711C80106966CE772E00E940711EA
:101880001F910F910895EF92FF920F931F937B0189
:101890000E94320C05E613E0C801B7010E940F1147
:1018A000C801049762E872E00E940F111F910F9126
:1018B000FF90EF900895EF92FF920F931F93CF93B5
:1018C000DF937C01EB018A0181EC92E00E94430CE2
:1018D0008881807F803E49F088819981AA81BB817F
:1018E0008F5F9F4FAF4FBF4F31F487E493E064ECBD
:1018F00071E00E94071188E0809353031092540313
:1019000085E593E060E770E049E050E00E94400127
:101910001092570381E180935E0310936B03009351
:101920006C03F0926903E0926A0310926D031092C7
:101930006F0310927003DF91CF911F910F91FF9071
:10194000EF900895EF92FF920F931F930DE413E031
:10195000C8010E94320C74E1E72EF12CE00EF11E5A
:10196000C8014896B7010E940F11C70162E872E0F2
:101970000E940F110E94ED0B1F910F91FF90EF90AD
:101980000895BC0181E08093B6028AE892E00E944B
:101990000F1108950F931F938C018896909357030E
:1019A000809358030E94ED0B1092790310927A03F2
:1019B000045E1F4F82E36AE1A80122E00E94810BCE
:1019C000C8014A960E947D0A1F910F910895CF93F6
:1019D000DF939C01862F806180937603643029F029
:1019E0002115310511F421E030E090916B038091D5
:1019F000690380936B039093690390916C038091CA
:101A00006A0380936C0390936A03C0E7D3E08881F4
:101A1000A901480F511D2C814C832883252F332782
:101A2000219753E0CC36D50791F71D861E8680E5B9
:101A300089871092570388E2809358030E94A20C72
:101A400084E08B871C8682E36AE14CE150E022E06F
:101A50000E94810B86E390E00E947D0ADF91CF9186
:101A60000895E82FA0915703B0915803F0917503A2
:101A700040916B0350E0292F30E04217530709F0E3
:101A80008EC080916C038E1709F089C08091760317
:101A9000E82F81FF4EC0109257038CE280935803C9
:101AA0000E94A20C82E18093760390916B03809157
:101AB000690380936B039093690390916C03809109
:101AC0006A0380936C0390936A03E0E7F3E021E0FC
:101AD00030E08081A901480F511D44831082252FD9
:101AE0003327319753E0EC36F50799F715861686BC
:101AF000118212828091AE01838314828D5F809364
:101B0000AE0182E0818B84E0828B95E0938B148A16
:101B100080E68187938788E7848782E36AE140E2F1
:101B200050E022E00E94810B8AE390E00E947D0A4F
:101B300036C084FF34C04F2F50E084E05595479560
:101B40008A95E1F79A2F80E02B2F30E0282B392B54
:101B5000CA01880F991F880F991F281B390B245120
:101B6000304037FF02C020E030E03093C8022093BD
:101B7000C702232B69F09A01220F331F220F331F54
:101B80002E5D3F4F685070406217730740F009C0E8
:101B9000E0FF05C080E090E060E00E94E70C20E0FC
:101BA00030E0C90108950F931F93DF93CF930F92F5
:101BB000CDB7DEB78C01045E1F4F109357030C5155
:101BC0001040802F845E8093580389830E94ED0B20
:101BD000085F1F4F10936D038981845180936E03BA
:101BE000085F1F4F88E26AE1A80121E00E94810B93
:101BF000C8014A960E947D0A0F90CF91DF911F91F4
:101C00000F910895DF92EF92FF920F931F93CF935E
:101C1000DF93EC0180919A02882319F0CE010E9493
:101C20003A06209709F0BFC08091B6028570F1F1A5
:101C30008091AB019091AC01892BC1F50E945E09A6
:101C40008823A1F184EC91E00E94320C88E080931B
:101C50005303A6E0FA2EF092540385E593E068E67C
:101C600070E048E050E00E94400107E613E0D80130
:101C70001D92FA94E9F7C8010A976CE772E00E9496
:101C80000711C80106966AE872E00E940F11C801A8
:101C9000049762E872E00E940F118091B60288609A
:101CA0008093B6028AE290E00E947D0A8091AB01A7
:101CB0009091AC0101969093AC018093AB0180911F
:101CC000B702813009F0EFC18091B60281FFEBC10C
:101CD00002E00093B7028091AD018F5F8093AD0168
:101CE0008F711091B8021295110F107E182BE09091
:101CF000B902D090BA0281EC92E066E972E00E94EB
:101D0000430CF8E0FF2EF09253031092540385E544
:101D100093E060E770E049E050E00E9440018CE20F
:101D20008093580386E080935E030E94ED0BE0925F
:101D30006B03D0926C038BE08093690310936A036A
:101D4000EDE6F3E0DF011D92FA94E9F78091AE0130
:101D500080936F038D5F8093AE0180E6809375035F
:101D60000093760383E080937703109278031092B8
:101D7000790310927A0310927B0310927C030093F4
:101D80007D0384E080937E0300937F0386E280934B
:101D9000800382E36AE140E250E022E00E94810B8E
:101DA0008AE390E09BC0C932D10508F47CC1109150
:101DB0005303183009F082C180915403863009F032
:101DC0007DC18DE693E062E872E044E050E00E945D
:101DD0005201009709F072C180915C03813029F5AE
:101DE0008DE493E00E94320C10925B0382E08093BA
:101DF0005C0387E693E06DE573E00E9407118DE5D3
:101E000093E06CE772E00E9407118DE693E063E6D1
:101E100073E00E940F1183E693E062E872E00E9493
:101E20000F118AE290E00E947D0A8091B60283FF42
:101E30003AC110915C03123009F035C183E693E09A
:101E40006AE872E044E050E00E945201009709F015
:101E50002AC181EC92E06DE573E00E9407111093B6
:101E6000B60221C1183009F01EC1809154038823A5
:101E700009F019C180915503853409F014C185E634
:101E800093E062E872E044E050E00E945201009763
:101E900009F009C180915E03813019F580916903D1
:101EA0008830F9F4E091BB02F091BC02309719F050
:101EB00081E693E009950E94A20C1092690380913B
:101EC0006B03883F28F080916C038F5F80936C03D5
:101ED00080916B03885F80936B03CE010E947D0A23
:101EE000E2C00E948310882351F080915E0381310B
:101EF00031F4CE010E948810882309F0D4C0C63383
:101F0000D10528F480915E03863009F0CCC0809121
:101F10006B038B3009F0BEC081E693E066E972E0A6
:101F200044E050E00E945201009709F0BCC080914B
:101F30007603382F82FF13C0E091BD02F091BE02FC
:101F4000309759F080916C0382958695877063E095
:101F500040E050E020E030E0099585E090C09091AD
:101F6000570380E020915803022F10E0082B192B13
:101F700080917503482F50E0E4E055954795EA9528
:101F8000E1F7CA01880F991F880F991F081B190BC9
:101F90000451104017FF02C000E010E08091B7022A
:101FA000823079F531FF21C034FF1FC080E090E01E
:101FB00060E00E94E70C88E180937603E091BF0225
:101FC000F091C002309719F420E030E007C0809112
:101FD0006A0382958695877009959C0183E08093BA
:101FE000B702C9010E94CA0C5EC081E08093B702AB
:101FF00034FF03C080E090E002C0C801019664E0B5
:1020000046C0833081F50115110579F1E091BD02DB
:10201000F091BE02309749F1440F551F440F551FF0
:10202000CE0108974E5D5F4F8417950708F4AC0109
:10203000C801840F951FC817D90710F0980103C075
:102040009E01241B350B80916C03829586958770C9
:1020500060E0099580919B02882319F0C80168E02F
:1020600016C0C80108C08530F1F030FF0BC08330C6
:10207000D1F0C801019669E00E94E70C86E08093E8
:10208000B70211C00115110571F0C80160E00E948E
:10209000E70C09C08091920190919301BE010E94CA
:1020A000310D9C0102C020E030E0C901DF91CF91E9
:1020B0001F910F91FF90EF90DF900895CA32D105E4
:1020C00008F0D0CEF0CFEF92FF920F931F930E94B3
:1020D000A8028C01BDE7EB2EB3E0FB2E80E090E080
:1020E000B801A7010E9452040E943A03E00EF11EBB
:1020F000F70110828BE78093AF01C8011F910F9108
:10210000FF90EF9008958091F402811181E008958D
:10211000CF92DF92EF92FF920F931F93CF93DF93B3
:10212000CCECD2E030E0CC24DD2429C02A814B81E4
:1021300080916B0390E0042F10E080179107D9F491
:1021400090916C039217B9F48C818823A1F02091AF
:102150006E0330E028503040F0906D03EE242E0DD9
:102160003F1DE881F981892F942F61E673E041E7F3
:1021700053E0099531E00894C11CD11C259680914B
:10218000F40290E0C816D9068CF2832FDF91CF912C
:102190001F910F91FF90EF90DF90CF9008950F93D4
:1021A0001F93CF93DF938C01C0E0D0E0F801EC0FD8
:1021B000FD1F88E996E060814AE050E00E94C41764
:1021C000C33029F088E996E06EE20E940D1721964F
:1021D000C430D10559F7DF91CF911F910F91089528
:1021E000EF92FF920F931F939C017B0108E916E089
:1021F000C801B9010E941618C7010E94CF10C8017A
:102200000E9415171F910F91FF90EF900895DC0128
:10221000FB0186E001900D928150E1F708959C0149
:10222000FB0180819181A281B381F9018083918337
:10223000A283B38308950F931F93CF93DF93FC0181
:10224000738D76957170A685B7859585772329F06E
:102250008C91892309F454C004C08C91892309F01E
:102260004FC08389948920E001972FEF8F3F920719
:10227000D9F7C589D689A685B785158560E031E08F
:1022800040E050E000E0CE01202F01972FEF8F3F7C
:102290009207D9F78C91812311F0632B03C0832F10
:1022A00080956823330F4F5F5F4F4830510559F7D2
:1022B0008789908D20E001972FEF8F3F9207D9F704
:1022C00071116095809137032091380390E0019659
:1022D0008F73907030E08217930779F0E0913703A5
:1022E000F0E0E950FD4F60838091370390E0019664
:1022F0008F7390708093370303C0838D8160838FC9
:10230000DF91CF911F910F9108951F920F920FB6F9
:102310000F9211242F933F934F935F936F937F936B
:102320008F939F93AF93BF93EF93FF938091F502A9
:102330009091F602009711F00E941B11FF91EF910E
:10234000BF91AF919F918F917F916F915F914F91CD
:102350003F912F910F900FBE0F901F9018951F92D5
:102360000F920FB60F9211242F933F934F935F93C9
:102370006F937F938F939F93AF93BF93EF93FF934D
:102380008091F5029091F602009711F00E941B11C6
:10239000FF91EF91BF91AF919F918F917F916F913D
:1023A0005F914F913F912F910F900FBE0F901F9013
:1023B00018951F920F920FB60F9211242F933F93EF
:1023C0004F935F936F937F938F939F93AF93BF933D
:1023D000EF93FF938091F5029091F602009711F030
:1023E0000E941B11FF91EF91BF91AF919F918F912F
:1023F0007F916F915F914F913F912F910F900FBE01
:102400000F901F901895FC0166834783208781E019
:10241000858708950F931F938C01FC01868160E0EE
:102420000E94261AF801868161E00E94651AF8016F
:1024300011861286138614861F910F910895CF92EC
:10244000DF92EF92FF920F931F93CF93DF93EC01F4
:102450008E8161E00E94651A6AEF70E080E090E092
:102460000E9488190E947A199B01AC0189859A857E
:10247000AB85BC85281739074A075B0720F4198606
:102480001A861B861C868D85882371F489859A851A
:10249000AB85BC85281B390B4A0B5B0B205D374095
:1024A0004040504008F477C01D860E947A19698721
:1024B0007A878B879C871C821B821A8219821882DA
:1024C0008E8161E00E94261A8E8160E00E94651A6A
:1024D00064E170E080E090E00E948819F8948E81B9
:1024E00061E00E94651A88E290E00E94E1198E8105
:1024F00060E00E94261A81E0EE2400E010E00AC0AD
:10250000F39481E090E00E94E1198FEFF81629F42E
:102510000AC0822FFF24C82EDD248E810E94B91AA2
:102520008C159D0569F38E810E94B91A282F8FEFB3
:10253000F816C9F0043090F000FD10C08E2D86957D
:1025400086958695FE01E80FF11D9081990F908385
:1025500088858F1510F491609083E3940F5F1F4F6F
:1025600005351105B1F6789487E28E1510F030E04C
:1025700013C030E04C8150E02981888190E0820FC7
:10258000911D2A81820F911D2B81820F911D9070C8
:102590004817590709F431E0832FDF91CF911F913C
:1025A0000F91FF90EF90DF90CF900895EF92FF9200
:1025B0000F931F93CF93DF93EC010E941F12882388
:1025C000A9F18F818B3031F08B3080F185518230D1
:1025D00068F507C0688170E080E090E00E940E1C02
:1025E00022C0688170E080E090E00E940E1C20E034
:1025F00030E040E853E40E94C41C7B018C016981F7
:1026000070E0882777FD8095982F0E94101C9B0111
:10261000AC01C801B7010E940D1B20E030E040E290
:1026200051E40E94751BE62F692F0AC088E996E0E5
:1026300060E071E00E941618E0E070E080EC6FE767
:102640002E2F372F482F562FB901CA01DF91CF9176
:102650001F910F91FF90EF900895CF92DF92EF922C
:10266000FF920F931F93CF93DF93EC01C62E0E942E
:102670001F12882309F450C08F818B3041F08B30BA
:1026800008F44AC08551823008F046C007C06A810C
:1026900070E080E090E00E940E1C29C0DA806D2D71
:1026A00070E06F777070882777FD8095982F0E9473
:1026B000101C20E030E040E853E40E94C41C7B0181
:1026C0008C016B8170E0882777FD8095982F0E94A0
:1026D000101C9B01AC01C801B7010E940D1B20E03A
:1026E00030E040E251E40E94751BD7FC9058CC20AA
:1026F000E9F020E030E040E151E40E94C41C20E019
:1027000030E040EA50E40E94751B20E030E040E0F9
:1027100052E40E940D1B0AC088E996E060E071E077
:102720000E94161860E070E080EC9FE7DF91CF9187
:102730001F910F91FF90EF90DF90CF90089589E364
:1027400093E062E046E126E00E94031210920A063E
:10275000109209068AEB91E0909308068093070691
:1027600010920E0610920C0608959F92AF92BF929F
:10277000CF92DF92EF92FF920F931F930E94DA099C
:102780000E94020E0E947A192091030630910406DD
:102790004091050650910606261737074807590746
:1027A00008F0A5C00E947A19605F784D8F4F9F4F47
:1027B00060930306709304068093050690930606C3
:1027C00089E393E00E94D6125B016C0189E393E0F8
:1027D00060E00E942D1326E636E646EE5FE30E9497
:1027E000C41C20E030E040E052E40E940D1B7B015D
:1027F0008C0187E096E00E942F05982E87E096E0F6
:102800006AE071E00E94161887E096E0B601A50123
:1028100022E030E00E94FD1888E996E06DE071E06A
:102820000E94101988E996E0B601A50122E030E087
:102830000E94FD1887E096E064E171E00E9416189E
:1028400087E096E0A701B80122E030E00E94FD1881
:1028500088E996E067E171E00E94101988E996E046
:10286000A701B80122E030E00E94FD1887E096E061
:102870000E94080387E096E00E944A022DB73EB707
:102880002E5030400FB6F8943EBF0FBE2DBFEDB7AF
:10289000FEB7319625E731E0ADB7BEB712963C934F
:1028A0002E93119740E351E0538342832EE631E0AB
:1028B00035832483578346832DE331E03187208796
:1028C00093878287948615860E9491032DB73EB721
:1028D000225F3F4F0FB6F8943EBF0FBE2DBF88E971
:1028E00096E06EE171E00E9410190E94120C1F9197
:1028F0000F91FF90EF90DF90CF90BF90AF909F909F
:10290000089588E996E040E855E260E070E00E94B2
:102910005C1588E996E063E271E00E94101989E392
:1029200093E00E940A128CEB92E060EB71E048E0C9
:102930000E94BA01882331F488E996E060E371E0EF
:102940000E9410190E949107882331F488E996E0CB
:1029500065E571E00E94101981E691E062E872E09D
:102960000E94F01087E691E06AE872E00E94F010A1
:102970008DE691E062E972E00E94F01080E391E060
:1029800060E00E94C607882331F488E996E063E797
:1029900071E00E9410198EE791E066E972E00E94F2
:1029A000F010089508951F920F920FB60F92112400
:1029B0002F933F934F938F939F93EF93FF93809128
:1029C000C00082FD1DC04091C6002091500630918C
:1029D00051062F5F3F4F2F733070809152069091B8
:1029E00053062817390771F0E0915006F09151060F
:1029F000E05FF94F4083309351062093500602C0A8
:102A00008091C600FF91EF919F918F914F913F91DF
:102A10002F910F900FBE0F901F901895E091A40674
:102A2000F091A506E05CFF4F819191912081318169
:102A3000821B930B8F739070892B11F00E94D2141C
:102A400008951F920F920FB60F9211242F933F9368
:102A50008F939F93EF93FF93209194063091950667
:102A600080919606909197062817390731F4809146
:102A7000C1008F7D8093C10014C0E0919606F09153
:102A80009706EC5AF94F208180919606909197060F
:102A900001968F739070909397068093960620937B
:102AA000C600FF91EF919F918F913F912F910F90D1
:102AB0000FBE0F901F901895AF92BF92DF92EF92CA
:102AC000FF920F931F93CF93DF93EC017A018B0159
:102AD000DD24403081EE580780E0680780E0780709
:102AE00011F0DD24D39491E0A92EB12CEC89FD895D
:102AF000DD2069F0C50108A002C0880F991F0A9463
:102B0000E2F7808360E079E08DE390E005C0108219
:102B100060E874E88EE190E0A80197010E945E1DD4
:102B20002150304040405040569547953795279565
:102B300080E12030380720F0DD2011F0DD24D6CFF1
:102B4000E889F9893083EA89FB89208319A2EE8913
:102B5000FF89408121E030E0C9010C8C02C0880F60
:102B6000991F0A94E2F7482B4083EE89FF89408140
:102B7000C9010D8C02C0880F991F0A94E2F7482BF7
:102B80004083EE89FF894081C9010E8C02C0880F05
:102B9000991F0A94E2F7482B4083EE89FF898081D0
:102BA0000F8C02C0220F331F0A94E2F720952823CE
:102BB0002083DF91CF911F910F91FF90EF90DF90D5
:102BC000BF90AF900895DC011C96ED91FC911D978C
:102BD000E05CFF4F2191319180819181281B390B5D
:102BE0002F733070C9010895DC011C96ED91FC91A2
:102BF0001D97E05CFF4F20813181E054F040DF0100
:102C0000AE5BBF4F8D919C9111972817390719F42E
:102C10002FEF3FEF07C08D919C91E80FF91F808146
:102C2000282F30E0C9010895DC011C96ED91FC913C
:102C30001D97E05CFF4F20813181E054F040DF01BF
:102C4000AE5BBF4F8D919C9111972817390719F4EE
:102C50002FEF3FEF10C08D919C911197E80FF91F56
:102C600020818D919C91119701968F739070119690
:102C70009C938E9330E0C9010895DC0191968C916C
:102C80009197882339F05496ED91FC915597808166
:102C900086FFF9CF91961C920895CF93DF93EC01B4
:102CA000EE85FF85E05CFF4F20813181E054F040EC
:102CB0002F5F3F4F2F733070DF01AE5BBF4F8D91A1
:102CC0009C91119728173907D1F3E05CFF4F808161
:102CD0009181E054F040E80FF91F6083EE85FF8595
:102CE000E05CFF4F31832083EE89FF89208181E002
:102CF00090E00F8C02C0880F991F0A94E2F7282BEE
:102D0000208381E089A3EC89FD89808180648083B0
:102D100081E090E0DF91CF91089510929B06109290
:102D20009A0688EE93E0A0E0B0E080939C06909332
:102D30009D06A0939E06B0939F068EEC91E0909323
:102D400099068093980680E196E09093A50680937B
:102D5000A40684E596E09093A7068093A60685ECEA
:102D600090E09093A9068093A80684EC90E090935D
:102D7000AB068093AA0680EC90E09093AD0680931A
:102D8000AC0681EC90E09093AF068093AE0682ECA7
:102D900090E09093B1068093B00686EC90E090931B
:102DA000B3068093B20684E08093B40683E08093F8
:102DB000B50687E08093B60685E08093B70681E08C
:102DC0008093B8060895CF92DF92EF92FF920F930F
:102DD0001F93CF93DF937C016B018A01C0E0D0E0A9
:102DE0000FC0D6016D916D01D701ED91FC9101905D
:102DF000F081E02DC7010995C80FD91F015010407F
:102E00000115110571F7CE01DF91CF911F910F913F
:102E1000FF90EF90DF90CF900895DC01ED91FC9151
:102E20000190F081E02D09950895EF92FF920F93A4
:102E30001F938C01DC01ED91FC910190F081E02D5C
:102E40006DE009957C01D801ED91FC910190F08134
:102E5000E02DC8016AE009959C012E0D3F1DC901B6
:102E60001F910F91FF90EF900895CF93DF93EC01A6
:102E70006115710519F420E030E00FC0DB010D9001
:102E80000020E9F71197A61BB70BE881F9810280B2
:102E9000F381E02DAD0109959C01C901DF91CF912E
:102EA00008954F925F927F928F929F92AF92BF92BE
:102EB000CF92DF92EF92FF920F931F93DF93CF9306
:102EC000CDB7DEB7A1970FB6F894DEBF0FBECDBF6A
:102ED0002C01742ECB01223008F42AE019A231E231
:102EE000C32ED12CCC0EDD1E822E9924AA24BB2405
:102EF000672D752FA50194010E945E1D79018A013D
:102F0000C801B701A50194010E942B1D472D461B46
:102F10000894C108D1084A3014F4405D01C0495CEE
:102F2000F6014083E114F1040105110521F07E2C26
:102F30005F2DC801DDCFC201B6010E943517A196F1
:102F40000FB6F894DEBF0FBECDBFCF91DF911F91BA
:102F50000F91FF90EF90DF90CF90BF90AF909F9038
:102F60008F907F905F904F900895DC01211531057F
:102F700041F4ED91FC910190F081E02D642F0995D1
:102F800008950E9451170895EF92FF920F931F9397
:102F90009A01E62EFF2400E010E0B801A7010E948C
:102FA000B5171F910F91FF90EF900895CF92DF9288
:102FB000EF92FF920F931F93CF93DF93EC016A017F
:102FC0007B012115310541F4E881F9810190F081FF
:102FD000E02D642F09951FC02A303105D1F477FF09
:102FE00017C0E881F9810190F081E02D6DE209952B
:102FF0008C0144275527BA014C195D096E097F09D8
:10300000CE012AE00E9451179801280F391F04C0F1
:103010002AE00E9451179C01C901DF91CF911F91B5
:103020000F91FF90EF90DF90CF9008950E94351799
:1030300008957F928F929F92AF92BF92CF92DF922C
:10304000EF92FF920F931F93CF93DF934C017A017E
:103050008B01722ECB01BA01A80197010E94271D96
:10306000882321F0C40164E871E021C0C0E0D0E011
:1030700057016801E894D7F8C601B5012FEF3FEF7B
:103080004FE75FE70E94271D882351F4C601B50171
:103090002FEF3FEF4FE75FE70E94711B181614F008
:1030A000C1E0D0E0219739F0C40168E871E00E94E6
:1030B0003517EC0193C0C801B7012FEF3FEF4FE781
:1030C0005FE40E94C01C181654F0C801B7012FEF2E
:1030D0003FEF4FE75FEC0E94711B882324F4C4018B
:1030E0006CE871E0E4CFC801B70120E030E040E0D7
:1030F00050E00E94711B87FD03C0C0E0D0E00EC00D
:10310000D401ED91FC910190F081E02DC4016DE2BC
:103110000995EC0117FB109517F9109520E030E0A8
:1031200040E05FE3DD240BC0CA01B90120E030E0DC
:1031300040E251E40E94751B9B01AC01D394D7146B
:1031400098F3C801B7010E940D1B5B016C010E943E
:10315000E21B7B018C01C401B801A7012AE030E029
:103160000E94B517C80FD91F772039F0C40160E954
:1031700071E00E943517C80FD91FC801B7010E941E
:103180000E1C9B01AC01C601B5010E940C1B24C0A2
:1031900020E030E040E251E40E94C41C7B018C013D
:1031A0000E94DD1B5B016C01CC24B7FCC094DC2CBD
:1031B000C401B601A5012AE030E00E94D617C80F6D
:1031C000D91FC601B5010E94101C9B01AC01C801AA
:1031D000B7010E940C1B7A947720D1F6CE01DF91C3
:1031E000CF911F910F91FF90EF90DF90CF90BF9004
:1031F000AF909F908F907F900895EF92FF920F93E2
:103200001F937C010E9419188C01C7010E94151799
:10321000080F191FC8011F910F91FF90EF9008959B
:10322000EF92FF920F931F937C010E9435178C0140
:10323000C7010E941517080F191FC8011F910F9190
:10324000FF90EF900895CF93DF930E94EB190E94B7
:103250008114CEE0D5E10E94B5132097E1F30E94DE
:103260000E15F9CF1F920F920FB60F9211242F93C4
:103270003F938F939F93AF93BF938091BE0690919E
:10328000BF06A091C006B091C1063091C20601965A
:10329000A11DB11D232F2D5F2D3720F02D57019635
:1032A000A11DB11D2093C2068093BE069093BF0658
:1032B000A093C006B093C1068091BA069091BB0658
:1032C000A091BC06B091BD060196A11DB11D8093D1
:1032D000BA069093BB06A093BC06B093BD06BF91FF
:1032E000AF919F918F913F912F910F900FBE0F90B3
:1032F0001F9018958FB7F8942091BE063091BF06A5
:103300004091C0065091C1068FBFB901CA0108950E
:103310009B01AC017FB7F8948091BA069091BB06EF
:10332000A091BC06B091BD0666B5A89B05C06F3FD5
:1033300019F00196A11DB11D7FBFBA2FA92F982F9B
:103340008827860F911DA11DB11D62E0880F991F6E
:10335000AA1FBB1F6A95D1F7BC012DC0FFB7F89417
:103360008091BA069091BB06A091BC06B091BD06B3
:10337000E6B5A89B05C0EF3F19F00196A11DB11D50
:10338000FFBFBA2FA92F982F88278E0F911DA11D3F
:10339000B11DE2E0880F991FAA1FBB1FEA95D1F764
:1033A000861B970B885E9340C8F221503040404006
:1033B000504068517C4F211531054105510571F68A
:1033C0000895019739F0880F991F880F991F029768
:1033D0000197F1F70895789484B5826084BD84B52F
:1033E000816084BD85B5826085BD85B5816085BD00
:1033F000EEE6F0E0808181608083E1E8F0E0108219
:10340000808182608083808181608083E0E8F0E059
:10341000808181608083E1EBF0E080818460808343
:10342000E0EBF0E0808181608083EAE7F0E080817A
:1034300084608083808182608083808181608083DA
:103440008081806880831092C1000895CF93DF93BC
:10345000482F50E0CA0180509E4FFC0134914451E6
:103460005E4FFA018491882369F190E0880F991FDB
:10347000FC01E253FE4FA591B491FC01E852FE4FCE
:10348000C591D491662351F42FB7F8948C91932F62
:10349000909589238C93888189230BC0623061F4D5
:1034A0002FB7F8948C91932F909589238C938881D2
:1034B000832B88832FBF06C09FB7F8948C91832BF2
:1034C0008C939FBFDF91CF910895482F50E0CA01A0
:1034D0008C5E9D4FFC012491CA0180509E4FFC01DF
:1034E000949144515E4FFA013491332309F440C062
:1034F000222351F1233071F0243028F42130A1F03F
:10350000223011F514C02630B1F02730C1F024303C
:10351000D9F404C0809180008F7703C0809180002F
:103520008F7D8093800010C084B58F7702C084B5F2
:103530008F7D84BD09C08091B0008F7703C08091DA
:10354000B0008F7D8093B000E32FF0E0EE0FFF1FFF
:10355000E852FE4FA591B4912FB7F894662321F459
:103560008C919095892302C08C91892B8C932FBFCD
:103570000895682F70E0CB018C5E9D4FFC01249173
:10358000CB0180509E4FFC01449164517E4FFB0162
:103590009491992319F420E030E03CC0222351F1AA
:1035A000233071F0243028F42130A1F0223011F5BD
:1035B00014C02630B1F02730C1F02430D9F404C053
:1035C000809180008F7703C0809180008F7D8093F1
:1035D000800010C084B58F7702C084B58F7D84BD14
:1035E00009C08091B0008F7703C08091B0008F7DBB
:1035F0008093B000892F90E0880F991F8E519E4FC5
:10360000FC01A591B4918C9120E030E0842311F06D
:1036100021E030E0C90108955058BB27AA270ED0F9
:1036200075C166D130F06BD120F031F49F3F11F4B9
:103630001EF45BC10EF4E095E7FB51C1E92F77D191
:1036400080F3BA17620773078407950718F071F4BF
:103650009EF58FC10EF4E0950B2EBA2FA02D0B0115
:10366000B90190010C01CA01A0011124FF27591BC7
:1036700099F0593F50F4503E68F11A16F040A22FCD
:10368000232F342F4427585FF3CF4695379527953E
:10369000A795F0405395C9F77EF41F16BA0B620B3D
:1036A000730B840BBAF09150A1F0FF0FBB1F661F84
:1036B000771F881FC2F70EC0BA0F621F731F841FC7
:1036C00048F4879577956795B795F7959E3F08F0ED
:1036D000B3CF9395880F08F09927EE0F97958795AC
:1036E0000895D9D008F481E008950CD00FC107D116
:1036F00040F0FED030F021F45F3F19F0F0C05111DE
:1037000039C1F3C014D198F39923C9F35523B1F308
:10371000951B550BBB27AA2762177307840738F040
:103720009F5F5F4F220F331F441FAA1FA9F333D09F
:103730000E2E3AF0E0E830D091505040E695001C53
:10374000CAF729D0FE2F27D0660F771F881FBB1F0F
:10375000261737074807AB07B0E809F0BB0B802DE9
:10376000BF01FF2793585F4F2AF09E3F510568F035
:10377000B6C000C15F3FECF3983EDCF386957795C9
:103780006795B795F7959F5FC9F7880F911D969537
:10379000879597F90895E1E0660F771F881FBB1F93
:1037A000621773078407BA0720F0621B730B840B40
:1037B000BA0BEE1F88F7E095089504D06894B11114
:1037C000D9C00895BCD088F09F5790F0B92F9927A1
:1037D000B751A0F0D1F0660F771F881F991F1AF01C
:1037E000BA95C9F712C0B13081F0C3D0B1E00895E5
:1037F000C0C0672F782F8827B85F39F0B93FCCF366
:10380000869577956795B395D9F73EF49095809511
:10381000709561957F4F8F4F9F4F0895E89409C031
:1038200097FB3EF490958095709561957F4F8F4FF3
:103830009F4F9923A9F0F92F96E9BB279395F69509
:10384000879577956795B795F111F8CFFAF4BB0F87
:1038500011F460FF1BC06F5F7F4F8F4F9F4F16C0EB
:10386000882311F096E911C0772321F09EE8872F75
:10387000762F05C0662371F096E8862F70E060E031
:103880002AF09A95660F771F881FDAF7880F9695AA
:10389000879597F90895990F0008550FAA0BE0E84E
:1038A000FEEF16161706E807F907C0F01216130602
:1038B000E407F50798F0621B730B840B950B39F442
:1038C0000A2661F0232B242B252B21F408950A26A8
:1038D00009F4A140A6958FEF811D811D089597F9E8
:1038E0009F6780E870E060E008959FEF80EC0895A6
:1038F00000240A94161617061806090608950024CF
:103900000A9412161306140605060895092E039448
:10391000000C11F4882352F0BB0F40F4BF2B11F4BC
:1039200060FF04C06F5F7F4F8F4F9F4F089557FD1B
:103930009058440F551F59F05F3F71F04795880F1D
:1039400097FB991F61F09F3F79F0879508951216B4
:1039500013061406551FF2CF4695F1DF08C0161660
:1039600017061806991FF1CF869571056105089411
:103970000895E894BB2766277727CB0197F9089528
:103980008ADF08F48FEF08950BD0C0CFB1DF28F0A5
:10399000B6DF18F0952309F0A2CFA7CF1124EACF04
:1039A000C6DFA0F3959FD1F3950F50E0551F629F9E
:1039B000F001729FBB27F00DB11D639FAA27F00D88
:1039C000B11DAA1F649F6627B00DA11D661F829FAF
:1039D0002227B00DA11D621F739FB00DA11D621F94
:1039E000839FA00D611D221F749F3327A00D611DB1
:1039F000231F849F600D211D822F762F6A2F112493
:103A00009F5750408AF0E1F088234AF0EE0FFF1FE5
:103A1000BB1F661F771F881F91505040A9F79E3F1C
:103A2000510570F05CCFA6CF5F3FECF3983EDCF31E
:103A3000869577956795B795F795E7959F5FC1F759
:103A4000FE2B880F911D9695879597F9089523DF92
:103A5000880B990B0895629FD001739FF001829F9C
:103A6000E00DF11D649FE00DF11D929FF00D839F0D
:103A7000F00D749FF00D659FF00D9927729FB00DAA
:103A8000E11DF91F639FB00DE11DF91FBD01CF01BD
:103A900011240895AA1BBB1B51E107C0AA1FBB1F1D
:103AA000A617B70710F0A61BB70B881F991F5A95CA
:103AB000A9F780959095BC01CD010895A1E21A2E39
:103AC000AA1BBB1BFD010DC0AA1FBB1FEE1FFF1FC2
:103AD000A217B307E407F50720F0A21BB30BE40B12
:103AE000F50B661F771F881F991F1A9469F7609559
:103AF0007095809590959B01AC01BD01CF01089513
:103B0000EE0FFF1F0590F491E02D0994F894FFCF7C
:103B100052656164206661696C00322C00646174D6
:103B200061203100332C00646174612032005365E0
:103B30006E64000A5B776562436C69656E745D0054
:103B40004661696C656420746F206163636573739B
:103B50002045746865726E657420636F6E74726F51
:103B60006C6C65720044484350206661696C656402
:103B70000049503A20200047573A202000444E5335
:103B80003A2000444E53206661696C6564005352CC
:103B9000563A20006E616E00696E66006F766600B0
:103BA0002E00500041726475696E6F2D3030003701
:103BB00003010306FF6382536335010100010A7BA1
:103BC0007469692D3031000000000303E316FFFF24
:103BD000FFFFFFFFFFFFFFFFFFFF000000004D168C
:0A3BE000E316E3151416F4153D1664
:00000001FF
